:1000000029C00000E4C0000040C000003EC0000065
:100010003CC000003AC0000038C0000036C00000FC
:1000200034C0000016C1000030C00000EDC0000068
:100030002CC000002BC000004DC0000026C00000F6
:1000400024C0000022C000001AC100001EC0000031
:100050001CC0000011241FBECFE5D8E0DEBFCDBF1D
:1000600010E0A0E6B0E0E6ECF2E002C005900D92F0
:10007000A036B107D9F720E0A0E6B0E001C01D929C
:10008000A838B207E1F70DD11CC1BACF1F920F9269
:100090000FB60F9211242F938F939F93EF93FF939B
:1000A000E09186008E2F8F5F8F709CB1209185002C
:1000B000821731F0F0E0EB58FF4F90838093860079
:1000C000FF91EF919F918F912F910F900FBE0F9005
:1000D0001F9018951F920F920FB60F9211248F93B5
:1000E0009F93EF93FF93809187009091640089170D
:1000F00059F0E82FF0E0EB59FF4F90819CB98F5FEA
:100100008F708093870001C05598FF91EF919F9168
:100110008F910F900FBE0F901F90189583E389B9B0
:1001200010BC88E98AB980E380BD08951BBA1ABA69
:1001300018BA17BA15BA8FEF84BB12BA11BA84E095
:1001400083BF86E082BF1CBE1FBC93E09EBD82ECD5
:100150008DBD87EF8CBD17BC16BC1BBC1ABC19BC6F
:1001600018BC12BC15BC14BC13BC8BB780648BBF0D
:1001700095BF14BE80E48ABF85E089BF1AB88AE4BF
:1001800088B910BE16B81DB816BE11BC0895D59812
:10019000DD9A0895CD9B12C0CA9B12C00CC08FE09F
:1001A000809362009093630008958A3078F48F5FA3
:1001B00080936200089510926200089591E001C05A
:1001C00092E080916200853081F7E9CF08951F9217
:1001D0000F920FB60F9211248F939F93AE9A8AE0DD
:1001E0008A95F1F700C0AE9880916000909161000F
:1001F000019690936100809360009F918F910F9082
:100200000FBE0F901F9018951F920F920FB60F926E
:1002100011242F933F934F935F936F937F938F930B
:100220009F93AF93BF93EF93FF9386E082BFB2DFBC
:10023000FF91EF91BF91AF919F918F917F916F91BE
:100240005F914F913F912F910F900FBE0F901F9094
:1002500018951F920F920FB60F9211248F9382EC74
:100260008DBD87EF8CBDAF9A8AE08A95F1F700C00B
:10027000AF988F910F900FBE0F901F9018951F92FF
:100280000F920FB60F9211248F93AF9A8AE08A953E
:10029000F1F700C0AF988F910F900FBE0F901F9095
:1002A000189544DF74DF3ADF8D9A959878942FEF94
:1002B00080E792E0215080409040E1F700C00000CC
:0602C000F6CFF894FFCF19
:00000001FF
